{
  "contractName": "Market",
  "abi": [
    {
      "constant": false,
      "inputs": [
        {
          "name": "spender",
          "type": "address"
        },
        {
          "name": "value",
          "type": "uint256"
        }
      ],
      "name": "approve",
      "outputs": [
        {
          "name": "",
          "type": "bool"
        }
      ],
      "payable": false,
      "stateMutability": "nonpayable",
      "type": "function"
    },
    {
      "constant": true,
      "inputs": [],
      "name": "totalSupply",
      "outputs": [
        {
          "name": "",
          "type": "uint256"
        }
      ],
      "payable": false,
      "stateMutability": "view",
      "type": "function"
    },
    {
      "constant": false,
      "inputs": [
        {
          "name": "sender",
          "type": "address"
        },
        {
          "name": "recipient",
          "type": "address"
        },
        {
          "name": "amount",
          "type": "uint256"
        }
      ],
      "name": "transferFrom",
      "outputs": [
        {
          "name": "",
          "type": "bool"
        }
      ],
      "payable": false,
      "stateMutability": "nonpayable",
      "type": "function"
    },
    {
      "constant": false,
      "inputs": [
        {
          "name": "spender",
          "type": "address"
        },
        {
          "name": "addedValue",
          "type": "uint256"
        }
      ],
      "name": "increaseAllowance",
      "outputs": [
        {
          "name": "",
          "type": "bool"
        }
      ],
      "payable": false,
      "stateMutability": "nonpayable",
      "type": "function"
    },
    {
      "constant": true,
      "inputs": [
        {
          "name": "account",
          "type": "address"
        }
      ],
      "name": "balanceOf",
      "outputs": [
        {
          "name": "",
          "type": "uint256"
        }
      ],
      "payable": false,
      "stateMutability": "view",
      "type": "function"
    },
    {
      "constant": false,
      "inputs": [
        {
          "name": "spender",
          "type": "address"
        },
        {
          "name": "subtractedValue",
          "type": "uint256"
        }
      ],
      "name": "decreaseAllowance",
      "outputs": [
        {
          "name": "",
          "type": "bool"
        }
      ],
      "payable": false,
      "stateMutability": "nonpayable",
      "type": "function"
    },
    {
      "constant": false,
      "inputs": [
        {
          "name": "recipient",
          "type": "address"
        },
        {
          "name": "amount",
          "type": "uint256"
        }
      ],
      "name": "transfer",
      "outputs": [
        {
          "name": "",
          "type": "bool"
        }
      ],
      "payable": false,
      "stateMutability": "nonpayable",
      "type": "function"
    },
    {
      "constant": true,
      "inputs": [
        {
          "name": "owner",
          "type": "address"
        },
        {
          "name": "spender",
          "type": "address"
        }
      ],
      "name": "allowance",
      "outputs": [
        {
          "name": "",
          "type": "uint256"
        }
      ],
      "payable": false,
      "stateMutability": "view",
      "type": "function"
    },
    {
      "anonymous": false,
      "inputs": [
        {
          "indexed": true,
          "name": "from",
          "type": "address"
        },
        {
          "indexed": true,
          "name": "to",
          "type": "address"
        },
        {
          "indexed": false,
          "name": "value",
          "type": "uint256"
        }
      ],
      "name": "Transfer",
      "type": "event"
    },
    {
      "anonymous": false,
      "inputs": [
        {
          "indexed": true,
          "name": "owner",
          "type": "address"
        },
        {
          "indexed": true,
          "name": "spender",
          "type": "address"
        },
        {
          "indexed": false,
          "name": "value",
          "type": "uint256"
        }
      ],
      "name": "Approval",
      "type": "event"
    },
    {
      "constant": false,
      "inputs": [
        {
          "name": "name",
          "type": "string"
        },
        {
          "name": "description",
          "type": "string"
        },
        {
          "name": "_price",
          "type": "uint256"
        },
        {
          "name": "_shares",
          "type": "uint256"
        }
      ],
      "name": "createProject",
      "outputs": [
        {
          "name": "",
          "type": "address"
        }
      ],
      "payable": false,
      "stateMutability": "nonpayable",
      "type": "function"
    },
    {
      "constant": true,
      "inputs": [
        {
          "name": "name",
          "type": "string"
        }
      ],
      "name": "getProjectAddress",
      "outputs": [
        {
          "name": "",
          "type": "address"
        }
      ],
      "payable": false,
      "stateMutability": "view",
      "type": "function"
    },
    {
      "constant": true,
      "inputs": [
        {
          "name": "name",
          "type": "string"
        }
      ],
      "name": "getProjectDescription",
      "outputs": [
        {
          "name": "",
          "type": "string"
        }
      ],
      "payable": false,
      "stateMutability": "view",
      "type": "function"
    },
    {
      "constant": true,
      "inputs": [
        {
          "name": "name",
          "type": "string"
        }
      ],
      "name": "getProjectOwner",
      "outputs": [
        {
          "name": "",
          "type": "address"
        }
      ],
      "payable": false,
      "stateMutability": "view",
      "type": "function"
    },
    {
      "constant": true,
      "inputs": [
        {
          "name": "name",
          "type": "string"
        }
      ],
      "name": "getSharesCount",
      "outputs": [
        {
          "name": "",
          "type": "uint256"
        }
      ],
      "payable": false,
      "stateMutability": "view",
      "type": "function"
    },
    {
      "constant": true,
      "inputs": [
        {
          "name": "name",
          "type": "string"
        },
        {
          "name": "client",
          "type": "address"
        }
      ],
      "name": "getSharesClientCount",
      "outputs": [
        {
          "name": "",
          "type": "uint256"
        }
      ],
      "payable": false,
      "stateMutability": "view",
      "type": "function"
    },
    {
      "constant": true,
      "inputs": [
        {
          "name": "name",
          "type": "string"
        }
      ],
      "name": "getPrice",
      "outputs": [
        {
          "name": "",
          "type": "uint256"
        }
      ],
      "payable": false,
      "stateMutability": "view",
      "type": "function"
    },
    {
      "constant": false,
      "inputs": [
        {
          "name": "name",
          "type": "string"
        }
      ],
      "name": "calculatePrice",
      "outputs": [],
      "payable": false,
      "stateMutability": "nonpayable",
      "type": "function"
    },
    {
      "constant": false,
      "inputs": [
        {
          "name": "name",
          "type": "string"
        },
        {
          "name": "_shares",
          "type": "uint256"
        }
      ],
      "name": "buyShares",
      "outputs": [],
      "payable": true,
      "stateMutability": "payable",
      "type": "function"
    },
    {
      "constant": false,
      "inputs": [
        {
          "name": "name",
          "type": "string"
        },
        {
          "name": "_shares",
          "type": "uint256"
        }
      ],
      "name": "sellShares",
      "outputs": [],
      "payable": true,
      "stateMutability": "payable",
      "type": "function"
    },
    {
      "constant": true,
      "inputs": [],
      "name": "checkContract",
      "outputs": [
        {
          "name": "",
          "type": "bool"
        }
      ],
      "payable": false,
      "stateMutability": "pure",
      "type": "function"
    }
  ],
  "bytecode": "0x608060405234801561001057600080fd5b50614c3b806100206000396000f3fe6080604052600436106200012e5760003560e01c80636c71716e11620000af578063a9059cbb116200006d578063a9059cbb1462000b8f578063c74702191462000c06578063caff564c1462000ce9578063dd62ed3e1462000db4578063e750b5c01462000e3d576200012e565b80636c71716e146200075857806370a08231146200082757806387b1dc3c146200089057806394ba9709146200095b578063a457c2d71462000b18576200012e565b8063338116b011620000fd578063338116b014620003725780633950935114620003a45780634e9cc731146200041b578063524f3889146200052a5780635ec2dca2146200060d576200012e565b8063095ea7b3146200013357806318160ddd14620001aa57806323b872dd14620001d857806326e82a83146200026f575b600080fd5b3480156200014057600080fd5b5062000190600480360360408110156200015957600080fd5b81019080803573ffffffffffffffffffffffffffffffffffffffff1690602001909291908035906020019092919050505062000f4c565b604051808215151515815260200191505060405180910390f35b348015620001b757600080fd5b50620001c262000f65565b6040518082815260200191505060405180910390f35b348015620001e557600080fd5b506200025560048036036060811015620001fe57600080fd5b81019080803573ffffffffffffffffffffffffffffffffffffffff169060200190929190803573ffffffffffffffffffffffffffffffffffffffff1690602001909291908035906020019092919050505062000f6f565b604051808215151515815260200191505060405180910390f35b3480156200027c57600080fd5b506200035c600480360360408110156200029557600080fd5b8101908080359060200190640100000000811115620002b357600080fd5b820183602082011115620002c657600080fd5b80359060200191846001830284011164010000000083111715620002e957600080fd5b91908080601f016020809104026020016040519081016040528093929190818152602001838380828437600081840152601f19601f820116905080830192505050505050509192919290803573ffffffffffffffffffffffffffffffffffffffff16906020019092919050505062001026565b6040518082815260200191505060405180910390f35b3480156200037f57600080fd5b506200038a620012a4565b604051808215151515815260200191505060405180910390f35b348015620003b157600080fd5b506200040160048036036040811015620003ca57600080fd5b81019080803573ffffffffffffffffffffffffffffffffffffffff16906020019092919080359060200190929190505050620012ad565b604051808215151515815260200191505060405180910390f35b3480156200042857600080fd5b50620004e8600480360360208110156200044157600080fd5b81019080803590602001906401000000008111156200045f57600080fd5b8201836020820111156200047257600080fd5b803590602001918460018302840111640100000000831117156200049557600080fd5b91908080601f016020809104026020016040519081016040528093929190818152602001838380828437600081840152601f19601f82011690508083019250505050505050919291929050505062001356565b604051808273ffffffffffffffffffffffffffffffffffffffff1673ffffffffffffffffffffffffffffffffffffffff16815260200191505060405180910390f35b3480156200053757600080fd5b50620005f7600480360360208110156200055057600080fd5b81019080803590602001906401000000008111156200056e57600080fd5b8201836020820111156200058157600080fd5b80359060200191846001830284011164010000000083111715620005a457600080fd5b91908080601f016020809104026020016040519081016040528093929190818152602001838380828437600081840152601f19601f8201169050808301925050505050505091929192905050506200159c565b6040518082815260200191505060405180910390f35b3480156200061a57600080fd5b50620006da600480360360208110156200063357600080fd5b81019080803590602001906401000000008111156200065157600080fd5b8201836020820111156200066457600080fd5b803590602001918460018302840111640100000000831117156200068757600080fd5b91908080601f016020809104026020016040519081016040528093929190818152602001838380828437600081840152601f19601f820116905080830192505050505050509192919290505050620017e2565b6040518080602001828103825283818151815260200191508051906020019080838360005b838110156200071c578082015181840152602081019050620006ff565b50505050905090810190601f1680156200074a5780820380516001836020036101000a031916815260200191505b509250505060405180910390f35b3480156200076557600080fd5b5062000825600480360360208110156200077e57600080fd5b81019080803590602001906401000000008111156200079c57600080fd5b820183602082011115620007af57600080fd5b80359060200191846001830284011164010000000083111715620007d257600080fd5b91908080601f016020809104026020016040519081016040528093929190818152602001838380828437600081840152601f19601f82011690508083019250505050505050919291929050505062001a82565b005b3480156200083457600080fd5b506200087a600480360360208110156200084d57600080fd5b81019080803573ffffffffffffffffffffffffffffffffffffffff16906020019092919050505062001ef6565b6040518082815260200191505060405180910390f35b6200095960048036036040811015620008a857600080fd5b8101908080359060200190640100000000811115620008c657600080fd5b820183602082011115620008d957600080fd5b80359060200191846001830284011164010000000083111715620008fc57600080fd5b91908080601f016020809104026020016040519081016040528093929190818152602001838380828437600081840152601f19601f8201169050808301925050505050505091929192908035906020019092919050505062001f3e565b005b3480156200096857600080fd5b5062000ad6600480360360808110156200098157600080fd5b81019080803590602001906401000000008111156200099f57600080fd5b820183602082011115620009b257600080fd5b80359060200191846001830284011164010000000083111715620009d557600080fd5b91908080601f016020809104026020016040519081016040528093929190818152602001838380828437600081840152601f19601f8201169050808301925050505050505091929192908035906020019064010000000081111562000a3957600080fd5b82018360208201111562000a4c57600080fd5b8035906020019184600183028401116401000000008311171562000a6f57600080fd5b91908080601f016020809104026020016040519081016040528093929190818152602001838380828437600081840152601f19601f8201169050808301925050505050505091929192908035906020019092919080359060200190929190505050620022f8565b604051808273ffffffffffffffffffffffffffffffffffffffff1673ffffffffffffffffffffffffffffffffffffffff16815260200191505060405180910390f35b34801562000b2557600080fd5b5062000b756004803603604081101562000b3e57600080fd5b81019080803573ffffffffffffffffffffffffffffffffffffffff1690602001909291908035906020019092919050505062002506565b604051808215151515815260200191505060405180910390f35b34801562000b9c57600080fd5b5062000bec6004803603604081101562000bb557600080fd5b81019080803573ffffffffffffffffffffffffffffffffffffffff16906020019092919080359060200190929190505050620025af565b604051808215151515815260200191505060405180910390f35b34801562000c1357600080fd5b5062000cd36004803603602081101562000c2c57600080fd5b810190808035906020019064010000000081111562000c4a57600080fd5b82018360208201111562000c5d57600080fd5b8035906020019184600183028401116401000000008311171562000c8057600080fd5b91908080601f016020809104026020016040519081016040528093929190818152602001838380828437600081840152601f19601f820116905080830192505050505050509192919290505050620025c8565b6040518082815260200191505060405180910390f35b62000db26004803603604081101562000d0157600080fd5b810190808035906020019064010000000081111562000d1f57600080fd5b82018360208201111562000d3257600080fd5b8035906020019184600183028401116401000000008311171562000d5557600080fd5b91908080601f016020809104026020016040519081016040528093929190818152602001838380828437600081840152601f19601f8201169050808301925050505050505091929192908035906020019092919050505062002845565b005b34801562000dc157600080fd5b5062000e276004803603604081101562000dda57600080fd5b81019080803573ffffffffffffffffffffffffffffffffffffffff169060200190929190803573ffffffffffffffffffffffffffffffffffffffff16906020019092919050505062002dca565b6040518082815260200191505060405180910390f35b34801562000e4a57600080fd5b5062000f0a6004803603602081101562000e6357600080fd5b810190808035906020019064010000000081111562000e8157600080fd5b82018360208201111562000e9457600080fd5b8035906020019184600183028401116401000000008311171562000eb757600080fd5b91908080601f016020809104026020016040519081016040528093929190818152602001838380828437600081840152601f19601f82011690508083019250505050505050919291929050505062002e51565b604051808273ffffffffffffffffffffffffffffffffffffffff1673ffffffffffffffffffffffffffffffffffffffff16815260200191505060405180910390f35b600062000f5b33848462003014565b6001905092915050565b6000600254905090565b600062000f7e8484846200320f565b6200101b84336200101585600160008a73ffffffffffffffffffffffffffffffffffffffff1673ffffffffffffffffffffffffffffffffffffffff16815260200190815260200160002060003373ffffffffffffffffffffffffffffffffffffffff1673ffffffffffffffffffffffffffffffffffffffff16815260200190815260200160002054620034b390919063ffffffff16565b62003014565b600190509392505050565b60008073ffffffffffffffffffffffffffffffffffffffff166003846040518082805190602001908083835b6020831062001077578051825260208201915060208101905060208303925062001052565b6001836020036101000a038019825116818451168082178552505050505050905001915050908152602001604051809103902060009054906101000a900473ffffffffffffffffffffffffffffffffffffffff1673ffffffffffffffffffffffffffffffffffffffff16141562001156576040517f08c379a000000000000000000000000000000000000000000000000000000000815260040180806020018281038252601d8152602001807f50726f6a6563743a204e616d6520646f6573206e6f742065786973742100000081525060200191505060405180910390fd5b6003836040518082805190602001908083835b602083106200118e578051825260208201915060208101905060208303925062001169565b6001836020036101000a038019825116818451168082178552505050505050905001915050908152602001604051809103902060009054906101000a900473ffffffffffffffffffffffffffffffffffffffff1673ffffffffffffffffffffffffffffffffffffffff166370a08231836040518263ffffffff1660e01b8152600401808273ffffffffffffffffffffffffffffffffffffffff1673ffffffffffffffffffffffffffffffffffffffff16815260200191505060206040518083038186803b1580156200125f57600080fd5b505afa15801562001274573d6000803e3d6000fd5b505050506040513d60208110156200128b57600080fd5b8101908080519060200190929190505050905092915050565b60006001905090565b60006200134c33846200134685600160003373ffffffffffffffffffffffffffffffffffffffff1673ffffffffffffffffffffffffffffffffffffffff16815260200190815260200160002060008973ffffffffffffffffffffffffffffffffffffffff1673ffffffffffffffffffffffffffffffffffffffff168152602001908152602001600020546200353d90919063ffffffff16565b62003014565b6001905092915050565b60008073ffffffffffffffffffffffffffffffffffffffff166003836040518082805190602001908083835b60208310620013a7578051825260208201915060208101905060208303925062001382565b6001836020036101000a038019825116818451168082178552505050505050905001915050908152602001604051809103902060009054906101000a900473ffffffffffffffffffffffffffffffffffffffff1673ffffffffffffffffffffffffffffffffffffffff16141562001486576040517f08c379a000000000000000000000000000000000000000000000000000000000815260040180806020018281038252601d8152602001807f50726f6a6563743a204e616d6520646f6573206e6f742065786973742100000081525060200191505060405180910390fd5b6003826040518082805190602001908083835b60208310620014be578051825260208201915060208101905060208303925062001499565b6001836020036101000a038019825116818451168082178552505050505050905001915050908152602001604051809103902060009054906101000a900473ffffffffffffffffffffffffffffffffffffffff1673ffffffffffffffffffffffffffffffffffffffff1663893d20e86040518163ffffffff1660e01b815260040160206040518083038186803b1580156200155857600080fd5b505afa1580156200156d573d6000803e3d6000fd5b505050506040513d60208110156200158457600080fd5b81019080805190602001909291905050509050919050565b60008073ffffffffffffffffffffffffffffffffffffffff166003836040518082805190602001908083835b60208310620015ed5780518252602082019150602081019050602083039250620015c8565b6001836020036101000a038019825116818451168082178552505050505050905001915050908152602001604051809103902060009054906101000a900473ffffffffffffffffffffffffffffffffffffffff1673ffffffffffffffffffffffffffffffffffffffff161415620016cc576040517f08c379a000000000000000000000000000000000000000000000000000000000815260040180806020018281038252601d8152602001807f50726f6a6563743a204e616d6520646f6573206e6f742065786973742100000081525060200191505060405180910390fd5b6003826040518082805190602001908083835b60208310620017045780518252602082019150602081019050602083039250620016df565b6001836020036101000a038019825116818451168082178552505050505050905001915050908152602001604051809103902060009054906101000a900473ffffffffffffffffffffffffffffffffffffffff1673ffffffffffffffffffffffffffffffffffffffff166398d5fdca6040518163ffffffff1660e01b815260040160206040518083038186803b1580156200179e57600080fd5b505afa158015620017b3573d6000803e3d6000fd5b505050506040513d6020811015620017ca57600080fd5b81019080805190602001909291905050509050919050565b6060600073ffffffffffffffffffffffffffffffffffffffff166003836040518082805190602001908083835b602083106200183457805182526020820191506020810190506020830392506200180f565b6001836020036101000a038019825116818451168082178552505050505050905001915050908152602001604051809103902060009054906101000a900473ffffffffffffffffffffffffffffffffffffffff1673ffffffffffffffffffffffffffffffffffffffff16141562001913576040517f08c379a000000000000000000000000000000000000000000000000000000000815260040180806020018281038252601d8152602001807f50726f6a6563743a204e616d6520646f6573206e6f742065786973742100000081525060200191505060405180910390fd5b6003826040518082805190602001908083835b602083106200194b578051825260208201915060208101905060208303925062001926565b6001836020036101000a038019825116818451168082178552505050505050905001915050908152602001604051809103902060009054906101000a900473ffffffffffffffffffffffffffffffffffffffff1673ffffffffffffffffffffffffffffffffffffffff16631a0925416040518163ffffffff1660e01b815260040160006040518083038186803b158015620019e557600080fd5b505afa158015620019fa573d6000803e3d6000fd5b505050506040513d6000823e3d601f19601f82011682018060405250602081101562001a2557600080fd5b81019080805164010000000081111562001a3e57600080fd5b8281019050602081018481111562001a5557600080fd5b815185600182028301116401000000008211171562001a7357600080fd5b50509291905050509050919050565b60006003826040518082805190602001908083835b6020831062001abc578051825260208201915060208101905060208303925062001a97565b6001836020036101000a038019825116818451168082178552505050505050905001915050908152602001604051809103902060009054906101000a900473ffffffffffffffffffffffffffffffffffffffff1673ffffffffffffffffffffffffffffffffffffffff166370a08231306040518263ffffffff1660e01b8152600401808273ffffffffffffffffffffffffffffffffffffffff1673ffffffffffffffffffffffffffffffffffffffff16815260200191505060206040518083038186803b15801562001b8d57600080fd5b505afa15801562001ba2573d6000803e3d6000fd5b505050506040513d602081101562001bb957600080fd5b810190808051906020019092919050505090506000816003846040518082805190602001908083835b6020831062001c07578051825260208201915060208101905060208303925062001be2565b6001836020036101000a038019825116818451168082178552505050505050905001915050908152602001604051809103902060009054906101000a900473ffffffffffffffffffffffffffffffffffffffff1673ffffffffffffffffffffffffffffffffffffffff1663b086613c6040518163ffffffff1660e01b815260040160206040518083038186803b15801562001ca157600080fd5b505afa15801562001cb6573d6000803e3d6000fd5b505050506040513d602081101562001ccd57600080fd5b81019080805190602001909291905050506003856040518082805190602001908083835b6020831062001d16578051825260208201915060208101905060208303925062001cf1565b6001836020036101000a038019825116818451168082178552505050505050905001915050908152602001604051809103902060009054906101000a900473ffffffffffffffffffffffffffffffffffffffff1673ffffffffffffffffffffffffffffffffffffffff166318160ddd6040518163ffffffff1660e01b815260040160206040518083038186803b15801562001db057600080fd5b505afa15801562001dc5573d6000803e3d6000fd5b505050506040513d602081101562001ddc57600080fd5b8101908080519060200190929190505050028162001df657fe5b0490506003836040518082805190602001908083835b6020831062001e31578051825260208201915060208101905060208303925062001e0c565b6001836020036101000a038019825116818451168082178552505050505050905001915050908152602001604051809103902060009054906101000a900473ffffffffffffffffffffffffffffffffffffffff1673ffffffffffffffffffffffffffffffffffffffff166318b20071826040518263ffffffff1660e01b815260040180828152602001915050600060405180830381600087803b15801562001ed857600080fd5b505af115801562001eed573d6000803e3d6000fd5b50505050505050565b60008060008373ffffffffffffffffffffffffffffffffffffffff1673ffffffffffffffffffffffffffffffffffffffff168152602001908152602001600020549050919050565b600073ffffffffffffffffffffffffffffffffffffffff166003836040518082805190602001908083835b6020831062001f8e578051825260208201915060208101905060208303925062001f69565b6001836020036101000a038019825116818451168082178552505050505050905001915050908152602001604051809103902060009054906101000a900473ffffffffffffffffffffffffffffffffffffffff1673ffffffffffffffffffffffffffffffffffffffff16141562002051576040517f08c379a000000000000000000000000000000000000000000000000000000000815260040180806020018281038252602881526020018062004ace6028913960400191505060405180910390fd5b620020678162002061846200159c565b620035c6565b341015620020c1576040517f08c379a000000000000000000000000000000000000000000000000000000000815260040180806020018281038252602581526020018062004b186025913960400191505060405180910390fd5b80620020cd83620025c8565b101562002126576040517f08c379a000000000000000000000000000000000000000000000000000000000815260040180806020018281038252603a81526020018062004b8d603a913960400191505060405180910390fd5b6003826040518082805190602001908083835b602083106200215e578051825260208201915060208101905060208303925062002139565b6001836020036101000a038019825116818451168082178552505050505050905001915050908152602001604051809103902060009054906101000a900473ffffffffffffffffffffffffffffffffffffffff1673ffffffffffffffffffffffffffffffffffffffff1663a9059cbb33836040518363ffffffff1660e01b8152600401808373ffffffffffffffffffffffffffffffffffffffff1673ffffffffffffffffffffffffffffffffffffffff16815260200182815260200192505050602060405180830381600087803b1580156200223957600080fd5b505af11580156200224e573d6000803e3d6000fd5b505050506040513d60208110156200226557600080fd5b8101908080519060200190929190505050620022e9576040517f08c379a00000000000000000000000000000000000000000000000000000000081526004018080602001828103825260158152602001807f4d61726b65743a20426164207472616e7366657221000000000000000000000081525060200191505060405180910390fd5b620022f48262001a82565b5050565b60008033868686866040516200230e9062003660565b808673ffffffffffffffffffffffffffffffffffffffff1673ffffffffffffffffffffffffffffffffffffffff1681526020018060200180602001858152602001848152602001838103835287818151815260200191508051906020019080838360005b838110156200238f57808201518184015260208101905062002372565b50505050905090810190601f168015620023bd5780820380516001836020036101000a031916815260200191505b50838103825286818151815260200191508051906020019080838360005b83811015620023f8578082015181840152602081019050620023db565b50505050905090810190601f168015620024265780820380516001836020036101000a031916815260200191505b50975050505050505050604051809103906000f0801580156200244d573d6000803e3d6000fd5b509050806003876040518082805190602001908083835b6020831062002489578051825260208201915060208101905060208303925062002464565b6001836020036101000a038019825116818451168082178552505050505050905001915050908152602001604051809103902060006101000a81548173ffffffffffffffffffffffffffffffffffffffff021916908373ffffffffffffffffffffffffffffffffffffffff16021790555080915050949350505050565b6000620025a533846200259f85600160003373ffffffffffffffffffffffffffffffffffffffff1673ffffffffffffffffffffffffffffffffffffffff16815260200190815260200160002060008973ffffffffffffffffffffffffffffffffffffffff1673ffffffffffffffffffffffffffffffffffffffff16815260200190815260200160002054620034b390919063ffffffff16565b62003014565b6001905092915050565b6000620025be3384846200320f565b6001905092915050565b60008073ffffffffffffffffffffffffffffffffffffffff166003836040518082805190602001908083835b60208310620026195780518252602082019150602081019050602083039250620025f4565b6001836020036101000a038019825116818451168082178552505050505050905001915050908152602001604051809103902060009054906101000a900473ffffffffffffffffffffffffffffffffffffffff1673ffffffffffffffffffffffffffffffffffffffff161415620026f8576040517f08c379a000000000000000000000000000000000000000000000000000000000815260040180806020018281038252601d8152602001807f50726f6a6563743a204e616d6520646f6573206e6f742065786973742100000081525060200191505060405180910390fd5b6003826040518082805190602001908083835b602083106200273057805182526020820191506020810190506020830392506200270b565b6001836020036101000a038019825116818451168082178552505050505050905001915050908152602001604051809103902060009054906101000a900473ffffffffffffffffffffffffffffffffffffffff1673ffffffffffffffffffffffffffffffffffffffff166370a08231306040518263ffffffff1660e01b8152600401808273ffffffffffffffffffffffffffffffffffffffff1673ffffffffffffffffffffffffffffffffffffffff16815260200191505060206040518083038186803b1580156200280157600080fd5b505afa15801562002816573d6000803e3d6000fd5b505050506040513d60208110156200282d57600080fd5b81019080805190602001909291905050509050919050565b600073ffffffffffffffffffffffffffffffffffffffff166003836040518082805190602001908083835b6020831062002895578051825260208201915060208101905060208303925062002870565b6001836020036101000a038019825116818451168082178552505050505050905001915050908152602001604051809103902060009054906101000a900473ffffffffffffffffffffffffffffffffffffffff1673ffffffffffffffffffffffffffffffffffffffff16141562002958576040517f08c379a000000000000000000000000000000000000000000000000000000000815260040180806020018281038252602981526020018062004a826029913960400191505060405180910390fd5b806003836040518082805190602001908083835b602083106200299157805182526020820191506020810190506020830392506200296c565b6001836020036101000a038019825116818451168082178552505050505050905001915050908152602001604051809103902060009054906101000a900473ffffffffffffffffffffffffffffffffffffffff1673ffffffffffffffffffffffffffffffffffffffff166370a08231336040518263ffffffff1660e01b8152600401808273ffffffffffffffffffffffffffffffffffffffff1673ffffffffffffffffffffffffffffffffffffffff16815260200191505060206040518083038186803b15801562002a6257600080fd5b505afa15801562002a77573d6000803e3d6000fd5b505050506040513d602081101562002a8e57600080fd5b8101908080519060200190929190505050101562002af8576040517f08c379a000000000000000000000000000000000000000000000000000000000815260040180806020018281038252602681526020018062004b3d6026913960400191505060405180910390fd5b6003826040518082805190602001908083835b6020831062002b30578051825260208201915060208101905060208303925062002b0b565b6001836020036101000a038019825116818451168082178552505050505050905001915050908152602001604051809103902060009054906101000a900473ffffffffffffffffffffffffffffffffffffffff1673ffffffffffffffffffffffffffffffffffffffff166323b872dd3330846040518463ffffffff1660e01b8152600401808473ffffffffffffffffffffffffffffffffffffffff1673ffffffffffffffffffffffffffffffffffffffff1681526020018373ffffffffffffffffffffffffffffffffffffffff1673ffffffffffffffffffffffffffffffffffffffff1681526020018281526020019350505050602060405180830381600087803b15801562002c3f57600080fd5b505af115801562002c54573d6000803e3d6000fd5b505050506040513d602081101562002c6b57600080fd5b810190808051906020019092919050505062002cef576040517f08c379a000000000000000000000000000000000000000000000000000000000815260040180806020018281038252601f8152602001807f4d61726b65743a73656c6c53686172657320426164207472616e73666572210081525060200191505060405180910390fd5b60008162002cfd846200159c565b029050803073ffffffffffffffffffffffffffffffffffffffff1631101562002d72576040517f08c379a000000000000000000000000000000000000000000000000000000000815260040180806020018281038252602a81526020018062004b63602a913960400191505060405180910390fd5b3373ffffffffffffffffffffffffffffffffffffffff166108fc829081150290604051600060405180830381858888f1935050505015801562002db9573d6000803e3d6000fd5b5062002dc58362001a82565b505050565b6000600160008473ffffffffffffffffffffffffffffffffffffffff1673ffffffffffffffffffffffffffffffffffffffff16815260200190815260200160002060008373ffffffffffffffffffffffffffffffffffffffff1673ffffffffffffffffffffffffffffffffffffffff16815260200190815260200160002054905092915050565b60008073ffffffffffffffffffffffffffffffffffffffff166003836040518082805190602001908083835b6020831062002ea2578051825260208201915060208101905060208303925062002e7d565b6001836020036101000a038019825116818451168082178552505050505050905001915050908152602001604051809103902060009054906101000a900473ffffffffffffffffffffffffffffffffffffffff1673ffffffffffffffffffffffffffffffffffffffff16141562002f81576040517f08c379a000000000000000000000000000000000000000000000000000000000815260040180806020018281038252601d8152602001807f50726f6a6563743a204e616d6520646f6573206e6f742065786973742100000081525060200191505060405180910390fd5b6003826040518082805190602001908083835b6020831062002fb9578051825260208201915060208101905060208303925062002f94565b6001836020036101000a038019825116818451168082178552505050505050905001915050908152602001604051809103902060009054906101000a900473ffffffffffffffffffffffffffffffffffffffff169050919050565b600073ffffffffffffffffffffffffffffffffffffffff168373ffffffffffffffffffffffffffffffffffffffff1614156200309c576040517f08c379a000000000000000000000000000000000000000000000000000000000815260040180806020018281038252602481526020018062004bec6024913960400191505060405180910390fd5b600073ffffffffffffffffffffffffffffffffffffffff168273ffffffffffffffffffffffffffffffffffffffff16141562003124576040517f08c379a000000000000000000000000000000000000000000000000000000000815260040180806020018281038252602281526020018062004af66022913960400191505060405180910390fd5b80600160008573ffffffffffffffffffffffffffffffffffffffff1673ffffffffffffffffffffffffffffffffffffffff16815260200190815260200160002060008473ffffffffffffffffffffffffffffffffffffffff1673ffffffffffffffffffffffffffffffffffffffff168152602001908152602001600020819055508173ffffffffffffffffffffffffffffffffffffffff168373ffffffffffffffffffffffffffffffffffffffff167f8c5be1e5ebec7d5bd14f71427d1e84f3dd0314c0f7b2291e5b200ac8c7c3b925836040518082815260200191505060405180910390a3505050565b600073ffffffffffffffffffffffffffffffffffffffff168373ffffffffffffffffffffffffffffffffffffffff16141562003297576040517f08c379a000000000000000000000000000000000000000000000000000000000815260040180806020018281038252602581526020018062004bc76025913960400191505060405180910390fd5b600073ffffffffffffffffffffffffffffffffffffffff168273ffffffffffffffffffffffffffffffffffffffff1614156200331f576040517f08c379a000000000000000000000000000000000000000000000000000000000815260040180806020018281038252602381526020018062004aab6023913960400191505060405180910390fd5b62003372816000808673ffffffffffffffffffffffffffffffffffffffff1673ffffffffffffffffffffffffffffffffffffffff16815260200190815260200160002054620034b390919063ffffffff16565b6000808573ffffffffffffffffffffffffffffffffffffffff1673ffffffffffffffffffffffffffffffffffffffff1681526020019081526020016000208190555062003407816000808573ffffffffffffffffffffffffffffffffffffffff1673ffffffffffffffffffffffffffffffffffffffff168152602001908152602001600020546200353d90919063ffffffff16565b6000808473ffffffffffffffffffffffffffffffffffffffff1673ffffffffffffffffffffffffffffffffffffffff168152602001908152602001600020819055508173ffffffffffffffffffffffffffffffffffffffff168373ffffffffffffffffffffffffffffffffffffffff167fddf252ad1be2c89b69c2b068fc378daa952ba7f163c4a11628f55a4df523b3ef836040518082815260200191505060405180910390a3505050565b6000828211156200352c576040517f08c379a000000000000000000000000000000000000000000000000000000000815260040180806020018281038252601e8152602001807f536166654d6174683a207375627472616374696f6e206f766572666c6f77000081525060200191505060405180910390fd5b600082840390508091505092915050565b600080828401905083811015620035bc576040517f08c379a000000000000000000000000000000000000000000000000000000000815260040180806020018281038252601b8152602001807f536166654d6174683a206164646974696f6e206f766572666c6f77000000000081525060200191505060405180910390fd5b8091505092915050565b600080821480620035e25750828283850281620035df57fe5b04145b62003655576040517f08c379a00000000000000000000000000000000000000000000000000000000081526004018080602001828103825260168152602001807f4d61726b65743a206d756c7479706c79206572726f720000000000000000000081525060200191505060405180910390fd5b818302905092915050565b611413806200366f8339019056fe60806040523480156200001157600080fd5b506040516200141338038062001413833981018060405260a08110156200003757600080fd5b810190808051906020019092919080516401000000008111156200005a57600080fd5b828101905060208101848111156200007157600080fd5b81518560018202830111640100000000821117156200008f57600080fd5b50509291906020018051640100000000811115620000ac57600080fd5b82810190506020810184811115620000c357600080fd5b8151856001820283011164010000000082111715620000e157600080fd5b5050929190602001805190602001909291908051906020019092919050505084600360006101000a81548173ffffffffffffffffffffffffffffffffffffffff021916908373ffffffffffffffffffffffffffffffffffffffff160217905550836004908051906020019062000159929190620003f3565b50826005908051906020019062000172929190620003f3565b5081600781905550600754600681905550620001953382620001a060201b60201c565b5050505050620004a2565b600073ffffffffffffffffffffffffffffffffffffffff168273ffffffffffffffffffffffffffffffffffffffff16141562000244576040517f08c379a000000000000000000000000000000000000000000000000000000000815260040180806020018281038252601f8152602001807f45524332303a206d696e7420746f20746865207a65726f20616464726573730081525060200191505060405180910390fd5b62000260816002546200036a60201b62000e1f1790919060201c565b600281905550620002be816000808573ffffffffffffffffffffffffffffffffffffffff1673ffffffffffffffffffffffffffffffffffffffff168152602001908152602001600020546200036a60201b62000e1f1790919060201c565b6000808473ffffffffffffffffffffffffffffffffffffffff1673ffffffffffffffffffffffffffffffffffffffff168152602001908152602001600020819055508173ffffffffffffffffffffffffffffffffffffffff16600073ffffffffffffffffffffffffffffffffffffffff167fddf252ad1be2c89b69c2b068fc378daa952ba7f163c4a11628f55a4df523b3ef836040518082815260200191505060405180910390a35050565b600080828401905083811015620003e9576040517f08c379a000000000000000000000000000000000000000000000000000000000815260040180806020018281038252601b8152602001807f536166654d6174683a206164646974696f6e206f766572666c6f77000000000081525060200191505060405180910390fd5b8091505092915050565b828054600181600116156101000203166002900490600052602060002090601f016020900481019282601f106200043657805160ff191683800117855562000467565b8280016001018555821562000467579182015b828111156200046657825182559160200191906001019062000449565b5b5090506200047691906200047a565b5090565b6200049f91905b808211156200049b57600081600090555060010162000481565b5090565b90565b610f6180620004b26000396000f3fe608060405234801561001057600080fd5b50600436106100cf5760003560e01c806370a082311161008c578063a457c2d711610066578063a457c2d7146103b5578063a9059cbb1461041b578063b086613c14610481578063dd62ed3e1461049f576100cf565b806370a08231146102f5578063893d20e81461034d57806398d5fdca14610397576100cf565b8063095ea7b3146100d457806318160ddd1461013a57806318b20071146101585780631a0925411461018657806323b872dd14610209578063395093511461028f575b600080fd5b610120600480360360408110156100ea57600080fd5b81019080803573ffffffffffffffffffffffffffffffffffffffff16906020019092919080359060200190929190505050610517565b604051808215151515815260200191505060405180910390f35b61014261052e565b6040518082815260200191505060405180910390f35b6101846004803603602081101561016e57600080fd5b8101908080359060200190929190505050610538565b005b61018e610542565b6040518080602001828103825283818151815260200191508051906020019080838360005b838110156101ce5780820151818401526020810190506101b3565b50505050905090810190601f1680156101fb5780820380516001836020036101000a031916815260200191505b509250505060405180910390f35b6102756004803603606081101561021f57600080fd5b81019080803573ffffffffffffffffffffffffffffffffffffffff169060200190929190803573ffffffffffffffffffffffffffffffffffffffff169060200190929190803590602001909291905050506105e4565b604051808215151515815260200191505060405180910390f35b6102db600480360360408110156102a557600080fd5b81019080803573ffffffffffffffffffffffffffffffffffffffff16906020019092919080359060200190929190505050610695565b604051808215151515815260200191505060405180910390f35b6103376004803603602081101561030b57600080fd5b81019080803573ffffffffffffffffffffffffffffffffffffffff16906020019092919050505061073a565b6040518082815260200191505060405180910390f35b610355610782565b604051808273ffffffffffffffffffffffffffffffffffffffff1673ffffffffffffffffffffffffffffffffffffffff16815260200191505060405180910390f35b61039f6107ac565b6040518082815260200191505060405180910390f35b610401600480360360408110156103cb57600080fd5b81019080803573ffffffffffffffffffffffffffffffffffffffff169060200190929190803590602001909291905050506107b6565b604051808215151515815260200191505060405180910390f35b6104676004803603604081101561043157600080fd5b81019080803573ffffffffffffffffffffffffffffffffffffffff1690602001909291908035906020019092919050505061085b565b604051808215151515815260200191505060405180910390f35b610489610872565b6040518082815260200191505060405180910390f35b610501600480360360408110156104b557600080fd5b81019080803573ffffffffffffffffffffffffffffffffffffffff169060200190929190803573ffffffffffffffffffffffffffffffffffffffff16906020019092919050505061087c565b6040518082815260200191505060405180910390f35b6000610524338484610903565b6001905092915050565b6000600254905090565b8060068190555050565b606060058054600181600116156101000203166002900480601f0160208091040260200160405190810160405280929190818152602001828054600181600116156101000203166002900480156105da5780601f106105af576101008083540402835291602001916105da565b820191906000526020600020905b8154815290600101906020018083116105bd57829003601f168201915b5050505050905090565b60006105f1848484610afa565b61068a843361068585600160008a73ffffffffffffffffffffffffffffffffffffffff1673ffffffffffffffffffffffffffffffffffffffff16815260200190815260200160002060003373ffffffffffffffffffffffffffffffffffffffff1673ffffffffffffffffffffffffffffffffffffffff16815260200190815260200160002054610d9690919063ffffffff16565b610903565b600190509392505050565b6000610730338461072b85600160003373ffffffffffffffffffffffffffffffffffffffff1673ffffffffffffffffffffffffffffffffffffffff16815260200190815260200160002060008973ffffffffffffffffffffffffffffffffffffffff1673ffffffffffffffffffffffffffffffffffffffff16815260200190815260200160002054610e1f90919063ffffffff16565b610903565b6001905092915050565b60008060008373ffffffffffffffffffffffffffffffffffffffff1673ffffffffffffffffffffffffffffffffffffffff168152602001908152602001600020549050919050565b6000600360009054906101000a900473ffffffffffffffffffffffffffffffffffffffff16905090565b6000600654905090565b6000610851338461084c85600160003373ffffffffffffffffffffffffffffffffffffffff1673ffffffffffffffffffffffffffffffffffffffff16815260200190815260200160002060008973ffffffffffffffffffffffffffffffffffffffff1673ffffffffffffffffffffffffffffffffffffffff16815260200190815260200160002054610d9690919063ffffffff16565b610903565b6001905092915050565b6000610868338484610afa565b6001905092915050565b6000600754905090565b6000600160008473ffffffffffffffffffffffffffffffffffffffff1673ffffffffffffffffffffffffffffffffffffffff16815260200190815260200160002060008373ffffffffffffffffffffffffffffffffffffffff1673ffffffffffffffffffffffffffffffffffffffff16815260200190815260200160002054905092915050565b600073ffffffffffffffffffffffffffffffffffffffff168373ffffffffffffffffffffffffffffffffffffffff161415610989576040517f08c379a0000000000000000000000000000000000000000000000000000000008152600401808060200182810382526024815260200180610f126024913960400191505060405180910390fd5b600073ffffffffffffffffffffffffffffffffffffffff168273ffffffffffffffffffffffffffffffffffffffff161415610a0f576040517f08c379a0000000000000000000000000000000000000000000000000000000008152600401808060200182810382526022815260200180610ecb6022913960400191505060405180910390fd5b80600160008573ffffffffffffffffffffffffffffffffffffffff1673ffffffffffffffffffffffffffffffffffffffff16815260200190815260200160002060008473ffffffffffffffffffffffffffffffffffffffff1673ffffffffffffffffffffffffffffffffffffffff168152602001908152602001600020819055508173ffffffffffffffffffffffffffffffffffffffff168373ffffffffffffffffffffffffffffffffffffffff167f8c5be1e5ebec7d5bd14f71427d1e84f3dd0314c0f7b2291e5b200ac8c7c3b925836040518082815260200191505060405180910390a3505050565b600073ffffffffffffffffffffffffffffffffffffffff168373ffffffffffffffffffffffffffffffffffffffff161415610b80576040517f08c379a0000000000000000000000000000000000000000000000000000000008152600401808060200182810382526025815260200180610eed6025913960400191505060405180910390fd5b600073ffffffffffffffffffffffffffffffffffffffff168273ffffffffffffffffffffffffffffffffffffffff161415610c06576040517f08c379a0000000000000000000000000000000000000000000000000000000008152600401808060200182810382526023815260200180610ea86023913960400191505060405180910390fd5b610c57816000808673ffffffffffffffffffffffffffffffffffffffff1673ffffffffffffffffffffffffffffffffffffffff16815260200190815260200160002054610d9690919063ffffffff16565b6000808573ffffffffffffffffffffffffffffffffffffffff1673ffffffffffffffffffffffffffffffffffffffff16815260200190815260200160002081905550610cea816000808573ffffffffffffffffffffffffffffffffffffffff1673ffffffffffffffffffffffffffffffffffffffff16815260200190815260200160002054610e1f90919063ffffffff16565b6000808473ffffffffffffffffffffffffffffffffffffffff1673ffffffffffffffffffffffffffffffffffffffff168152602001908152602001600020819055508173ffffffffffffffffffffffffffffffffffffffff168373ffffffffffffffffffffffffffffffffffffffff167fddf252ad1be2c89b69c2b068fc378daa952ba7f163c4a11628f55a4df523b3ef836040518082815260200191505060405180910390a3505050565b600082821115610e0e576040517f08c379a000000000000000000000000000000000000000000000000000000000815260040180806020018281038252601e8152602001807f536166654d6174683a207375627472616374696f6e206f766572666c6f77000081525060200191505060405180910390fd5b600082840390508091505092915050565b600080828401905083811015610e9d576040517f08c379a000000000000000000000000000000000000000000000000000000000815260040180806020018281038252601b8152602001807f536166654d6174683a206164646974696f6e206f766572666c6f77000000000081525060200191505060405180910390fd5b809150509291505056fe45524332303a207472616e7366657220746f20746865207a65726f206164647265737345524332303a20617070726f766520746f20746865207a65726f206164647265737345524332303a207472616e736665722066726f6d20746865207a65726f206164647265737345524332303a20617070726f76652066726f6d20746865207a65726f2061646472657373a165627a7a723058207de37e7a3985a48a071e334983d7ae5c7b3f22f126c593ade30b187da435314300294d61726b65743a2073656c6c536861726573202d204e616d6520646f6573206e6f742065786973742145524332303a207472616e7366657220746f20746865207a65726f20616464726573734d61726b65743a20627579536861726573202d204e616d6520646f6573206e6f742065786973742145524332303a20617070726f766520746f20746865207a65726f20616464726573734d61726b65743a20627579536861726573202d20496e636f727265637420616d6f756e74214d61726b65743a2073656c6c536861726573202d20496e636f727265637420616d6f756e74214d61726b65743a2073656c6c536861726573202d20496e636f72726563742045544820616d6f756e74214d61726b65743a2062757950726f6a656374536861726573202d20546f206d616e792073686172657320796f752077616e7420746f206275792145524332303a207472616e736665722066726f6d20746865207a65726f206164647265737345524332303a20617070726f76652066726f6d20746865207a65726f2061646472657373a165627a7a723058203e242c77c4fe417b59b342702abf36570e99b67857fdb9eb04ff48c5e28ee3250029",
  "source": "pragma solidity ^0.5.0;\r\n\r\nimport '@openzeppelin/contracts/token/ERC20/ERC20.sol';\r\nimport './Project.sol';\r\n\r\ncontract Market is ERC20 {\r\n\r\n\tmapping(string => Project) Projects;\r\n\r\n\tfunction createProject (\r\n\t\tstring memory name,\r\n\t\tstring memory description,\r\n\t\tuint _price,\r\n\t\tuint256 _shares\r\n\t)\r\n\tpublic returns(Project) {\r\n\t\tProject newProject = new Project(msg.sender, name, description, _price, _shares);\r\n\t\tProjects[name] = newProject;\r\n\t\treturn newProject;\r\n\t}\r\n\tfunction multiply(uint shares, uint price) internal pure returns (uint) {\r\n\t\trequire(price == 0 || (shares * price) / price == shares, \"Market: multyply error\");\r\n\t\treturn shares * price;\r\n   \t}\r\n\tfunction getProjectAddress(string memory name) public view returns(address) {\r\n\t\trequire(address(Projects[name]) != address(0), 'Project: Name does not exist!');\r\n\t\treturn address(Projects[name]);\r\n\t}\r\n\r\n\tfunction getProjectDescription(string memory name) public view returns(string memory) {\r\n\t\trequire(address(Projects[name]) != address(0), 'Project: Name does not exist!');\r\n\t\treturn Projects[name].getDescription();\r\n\t}\r\n\r\n\tfunction getProjectOwner(string memory name) public view returns(address) {\r\n\t\trequire(address(Projects[name]) != address(0), 'Project: Name does not exist!');\r\n\t\treturn Projects[name].getOwner();\r\n\t}\r\n\r\n\tfunction getSharesCount(string memory name) public view returns(uint256) {\r\n\t\trequire(address(Projects[name]) != address(0), 'Project: Name does not exist!');\r\n\t\treturn Projects[name].balanceOf(address(this));\r\n\t}\r\n\r\n\tfunction getSharesClientCount(string memory name, address client) public view returns(uint256) {\r\n\t\trequire(address(Projects[name]) != address(0), 'Project: Name does not exist!');\r\n\t\treturn Projects[name].balanceOf(client);\r\n\t}\r\n\r\n\tfunction getPrice(string memory name) public view returns(uint256) {\r\n\t\trequire(address(Projects[name]) != address(0), 'Project: Name does not exist!');\r\n\t\treturn Projects[name].getPrice();\r\n\t}\r\n\r\n\tfunction calculatePrice(string memory name) public {\r\n\t\tuint256 balance = Projects[name].balanceOf(address(this));\r\n\t\tuint256 newPrice = Projects[name].totalSupply() * Projects[name].getDefaultPrice() / balance;\r\n\t\tProjects[name].setCurrentPrice(newPrice);\r\n\t}\r\n\r\n\tfunction buyShares(string memory name, uint256 _shares) public payable {\r\n\t\trequire(address(Projects[name]) != address(0), 'Market: buyShares - Name does not exist!');\r\n\t\trequire(msg.value >= multiply(_shares, getPrice(name)), \"Market: buyShares - Incorrect amount!\");\r\n\t\trequire(getSharesCount(name) >= _shares, 'Market: buyProjectShares - To many shares you want to buy!');\r\n\t\trequire(Projects[name].transfer(msg.sender, _shares), 'Market: Bad transfer!');\r\n\t\tcalculatePrice(name);\r\n\t}\r\n\r\n\tfunction sellShares(string memory name, uint256 _shares) public payable {\r\n\t\trequire(address(Projects[name]) != address(0), 'Market: sellShares - Name does not exist!');\r\n\t\trequire(Projects[name].balanceOf(msg.sender) >= _shares, 'Market: sellShares - Incorrect amount!');\r\n\t\trequire(Projects[name].transferFrom(msg.sender, address(this), _shares), 'Market:sellShares Bad transfer!');\r\n\t\tuint256 value = getPrice(name) * _shares;\r\n\t\trequire(address(this).balance >= value, 'Market: sellShares - Incorrect ETH amount!');\r\n\t\tmsg.sender.transfer(value);\r\n\t\tcalculatePrice(name);\r\n\t}\r\n\r\n\tfunction checkContract() public pure returns(bool) {\r\n\t\treturn true;\r\n\t}\r\n}\r\n",
  "sourcePath": "C:/Work/Truffle/SmartContracts/contracts/Market.sol",
  "compiler": {
    "name": "solc",
    "version": "0.5.8+commit.23d335f2.Emscripten.clang"
  },
  "schemaVersion": "3.0.16",
  "updatedAt": "2019-11-07T16:51:52.592Z",
  "devdoc": {
    "methods": {
      "allowance(address,address)": {
        "details": "See `IERC20.allowance`."
      },
      "approve(address,uint256)": {
        "details": "See `IERC20.approve`.     * Requirements:     * - `spender` cannot be the zero address."
      },
      "balanceOf(address)": {
        "details": "See `IERC20.balanceOf`."
      },
      "decreaseAllowance(address,uint256)": {
        "details": "Atomically decreases the allowance granted to `spender` by the caller.     * This is an alternative to `approve` that can be used as a mitigation for problems described in `IERC20.approve`.     * Emits an `Approval` event indicating the updated allowance.     * Requirements:     * - `spender` cannot be the zero address. - `spender` must have allowance for the caller of at least `subtractedValue`."
      },
      "increaseAllowance(address,uint256)": {
        "details": "Atomically increases the allowance granted to `spender` by the caller.     * This is an alternative to `approve` that can be used as a mitigation for problems described in `IERC20.approve`.     * Emits an `Approval` event indicating the updated allowance.     * Requirements:     * - `spender` cannot be the zero address."
      },
      "totalSupply()": {
        "details": "See `IERC20.totalSupply`."
      },
      "transfer(address,uint256)": {
        "details": "See `IERC20.transfer`.     * Requirements:     * - `recipient` cannot be the zero address. - the caller must have a balance of at least `amount`."
      },
      "transferFrom(address,address,uint256)": {
        "details": "See `IERC20.transferFrom`.     * Emits an `Approval` event indicating the updated allowance. This is not required by the EIP. See the note at the beginning of `ERC20`;     * Requirements: - `sender` and `recipient` cannot be the zero address. - `sender` must have a balance of at least `value`. - the caller must have allowance for `sender`'s tokens of at least `amount`."
      }
    }
  },
  "userdoc": {
    "methods": {}
  }
}